S01800006275696C642F6D6963617A2F6D61696E2E73726563E5
S11300000C9449000C9468000C9468000C946800EB
S11300100C9468000C9468000C9468000C946800BC
S11300200C9468000C9468000C9468000C946800AC
S11300300C9468000C9468000C9468000C9468009C
S11300400C9468000C9468000C9468000C9468008C
S11300500C9468000C9468000C9468000C9468007C
S11300600C9468000C9468000C9468000C9468006C
S11300700C9468000C9468000C9468000C9468005C
S11300800C9468000C9468000C94680000081C1818
S1130090141011241FBECFEFD0E1DEBFCDBF11E09D
S11300A0A0E0B1E0EEEDF3E000E00BBF02C007908A
S11300B00D92A030B107D9F711E0A0E0B1E001C082
S11300C01D92A635B107E1F70E94E8000C94EE01F9
S11300D00C9400008FB7F894992708958FBF089562
S11300E0809151018F3F19F480E090E00895282F0A
S11300F03327F901E050FF4F8081809351018F3FF6
S113010011F4809355018FEF808390E02F3F09F421
S113011091E081E09827892F9927089521E030E024
S113012040E050E090E005C0220F331F441F551FEC
S11301309F5F9617C9F7E82FFF27EE0FFF1FEE0FFB
S1130140FF1FE050FF4F80819181A281B381822BF8
S1130150932BA42BB52B8F3F2FEF92072FEFA207E2
S11301602FEFB20719F481E090E008958083918322
S1130170A283B38380E090E00895A62FE82FFF27A1
S1130180EE0FFF1FEE0FFF1FE050FF4FE081BB2774
S1130190AA0FBB1FAA0FBB1FA050BF4FAC9160E0BA
S11301A021E030E040E050E0922F8E2F822329F0AE
S11301B09A2319F481E090E008956F5F603229F08A
S11301C0220F331F441F551FEFCF80E090E00895A6
S11301D01F931FB7F8948FEF8093510180935501BB
S11301E081E08EBD88E080BF83E083BF8CB59DB580
S11301F04AE72CB53DB52817390708F44150442384
S113020011F0C901F6CF92B782B78917E9F32CB57B
S11302103DB592B782B78917E9F38CB59DB5821BBA
S1130220930B4096E5E096958795EA95E1F79093D0
S113023053018093520113BE83B78EBD8EB580BF28
S113024012BE1DBC1CBC8FEF86BF86B780937C009A
S113025080B7992787709070892BD1F7D29AD19A59
S1130260D09ADA9AD99AD89A15BA8FEF84BBD498CF
S1130270DC980E9470008823E1F70E9470008823B4
S1130280E1F7812F99278FBF789461E080E00E9485
S11302908E0062E080E00E948E0061E081E00E94B6
S11302A08E0062E081E00E948E0061E082E00E94A4
S11302B08E0062E082E00E948E0062E083E00E9491
S11302C08E0061E082E00E94BD00882321F461E099
S11302D083E00E94BD002091080130910901409102
S11302E00A0150910B018091000190910101A091AC
S11302F00201B0910301282B392B4A2B5B2B20934D
S113030008013093090140930A0150930B01609155
S11303105401E62FFF27EE0FFF1FEE0FFF1FE050E3
S1130320FF4F80819181A281B381282B392B4A2BE5
S11303305B2B209308013093090140930A015093E9
S11303400B01609350018FB7F894482F55272FC0A5
S113035087B7887BC1F480917D008B7FA1F46E996F
S113036012C08AB190919A00892B887161F48091AE
S1130370740082FD08C0379B03C0E1E0F0E005C0D3
S1130380E5E0F0E002C0E0E0F0E085B7E63008F038
S1130390E5E0FF27E457FF4FE491837E8062E82B7A
S11303A0E5BF78948895F89485B78F7D85BF809153
S11303B051018F3F69F2282F3327F901E050FF4F95
S11303C08081809351018F3F11F4809355018FEF09
S11103D080832F3F09F4BCCF4FBFB5CFFFCFC2
S9030000FC
